{
	"Contracts/Health.sol": {
		"Health": {
			"abi": [
				{
					"constant": false,
					"inputs": [
						{
							"name": "_name",
							"type": "string"
						},
						{
							"name": "_age",
							"type": "uint256"
						},
						{
							"name": "_publicPass",
							"type": "uint256"
						}
					],
					"name": "addPeople",
					"outputs": [],
					"payable": false,
					"stateMutability": "nonpayable",
					"type": "function"
				},
				{
					"constant": false,
					"inputs": [
						{
							"name": "_publicPass",
							"type": "uint256"
						},
						{
							"name": "_age",
							"type": "uint256"
						}
					],
					"name": "changeAge",
					"outputs": [],
					"payable": false,
					"stateMutability": "nonpayable",
					"type": "function"
				},
				{
					"constant": true,
					"inputs": [
						{
							"name": "",
							"type": "uint256"
						}
					],
					"name": "peopleData",
					"outputs": [
						{
							"name": "adr",
							"type": "address"
						},
						{
							"name": "name",
							"type": "string"
						},
						{
							"name": "age",
							"type": "uint256"
						},
						{
							"name": "diseases",
							"type": "string"
						},
						{
							"name": "medication",
							"type": "string"
						}
					],
					"payable": false,
					"stateMutability": "view",
					"type": "function"
				},
				{
					"constant": false,
					"inputs": [
						{
							"name": "_newPublicPass",
							"type": "uint256"
						},
						{
							"name": "_oldPublicPass",
							"type": "uint256"
						}
					],
					"name": "changePublicPass",
					"outputs": [],
					"payable": false,
					"stateMutability": "nonpayable",
					"type": "function"
				},
				{
					"constant": false,
					"inputs": [
						{
							"name": "_publicPass",
							"type": "uint256"
						}
					],
					"name": "purchasedMedication",
					"outputs": [],
					"payable": false,
					"stateMutability": "nonpayable",
					"type": "function"
				},
				{
					"constant": false,
					"inputs": [
						{
							"name": "_publicPass",
							"type": "uint256"
						},
						{
							"name": "_medication",
							"type": "string"
						}
					],
					"name": "addMedication",
					"outputs": [],
					"payable": false,
					"stateMutability": "nonpayable",
					"type": "function"
				},
				{
					"constant": false,
					"inputs": [
						{
							"name": "_publicPass",
							"type": "uint256"
						},
						{
							"name": "_diseases",
							"type": "string"
						}
					],
					"name": "addDisease",
					"outputs": [],
					"payable": false,
					"stateMutability": "nonpayable",
					"type": "function"
				},
				{
					"inputs": [],
					"payable": false,
					"stateMutability": "nonpayable",
					"type": "constructor"
				}
			],
			"devdoc": {
				"methods": {}
			},
			"evm": {
				"assembly": "    /* \"Contracts/Health.sol\":28:1220  contract Health {\r... */\n  mstore(0x40, 0x60)\n    /* \"Contracts/Health.sol\":208:235  function Health() {\r... */\n  jumpi(tag_1, iszero(callvalue))\n  0x0\n  dup1\n  revert\ntag_1:\ntag_2:\ntag_3:\n    /* \"Contracts/Health.sol\":28:1220  contract Health {\r... */\ntag_4:\n  dataSize(sub_0)\n  dup1\n  dataOffset(sub_0)\n  0x0\n  codecopy\n  0x0\n  return\nstop\n\nsub_0: assembly {\n        /* \"Contracts/Health.sol\":28:1220  contract Health {\r... */\n      mstore(0x40, 0x60)\n      jumpi(tag_1, iszero(calldatasize))\n      calldataload(0x0)\n      0x100000000000000000000000000000000000000000000000000000000\n      swap1\n      div\n      0xffffffff\n      and\n      dup1\n      0xb6dde0c\n      eq\n      tag_2\n      jumpi\n      dup1\n      0x20de6831\n      eq\n      tag_3\n      jumpi\n      dup1\n      0x73ea23d9\n      eq\n      tag_4\n      jumpi\n      dup1\n      0x79ecb90b\n      eq\n      tag_5\n      jumpi\n      dup1\n      0xd0db7899\n      eq\n      tag_6\n      jumpi\n      dup1\n      0xf3abea83\n      eq\n      tag_7\n      jumpi\n      dup1\n      0xf82d4db3\n      eq\n      tag_8\n      jumpi\n    tag_1:\n      0x0\n      dup1\n      revert\n        /* \"Contracts/Health.sol\":243:477  function addPeople(string _name, uint _age, uint _publicPass)  {\r... */\n    tag_2:\n      jumpi(tag_9, iszero(callvalue))\n      0x0\n      dup1\n      revert\n    tag_9:\n      tag_10\n      0x4\n      dup1\n      dup1\n      calldataload\n      swap1\n      0x20\n      add\n      swap1\n      dup3\n      add\n      dup1\n      calldataload\n      swap1\n      0x20\n      add\n      swap1\n      dup1\n      dup1\n      0x1f\n      add\n      0x20\n      dup1\n      swap2\n      div\n      mul\n      0x20\n      add\n      mload(0x40)\n      swap1\n      dup2\n      add\n      0x40\n      mstore\n      dup1\n      swap4\n      swap3\n      swap2\n      swap1\n      dup2\n      dup2\n      mstore\n      0x20\n      add\n      dup4\n      dup4\n      dup1\n      dup3\n      dup5\n      calldatacopy\n      dup3\n      add\n      swap2\n      pop\n      pop\n      pop\n      pop\n      pop\n      pop\n      swap2\n      swap1\n      dup1\n      calldataload\n      swap1\n      0x20\n      add\n      swap1\n      swap2\n      swap1\n      dup1\n      calldataload\n      swap1\n      0x20\n      add\n      swap1\n      swap2\n      swap1\n      pop\n      pop\n      jump(tag_11)\n    tag_10:\n      stop\n        /* \"Contracts/Health.sol\":485:583  function changeAge(uint _publicPass, uint _age) {\r... */\n    tag_3:\n      jumpi(tag_12, iszero(callvalue))\n      0x0\n      dup1\n      revert\n    tag_12:\n      tag_13\n      0x4\n      dup1\n      dup1\n      calldataload\n      swap1\n      0x20\n      add\n      swap1\n      swap2\n      swap1\n      dup1\n      calldataload\n      swap1\n      0x20\n      add\n      swap1\n      swap2\n      swap1\n      pop\n      pop\n      jump(tag_14)\n    tag_13:\n      stop\n        /* \"Contracts/Health.sol\":161:202  mapping(uint => Person) public peopleData */\n    tag_4:\n      jumpi(tag_15, iszero(callvalue))\n      0x0\n      dup1\n      revert\n    tag_15:\n      tag_16\n      0x4\n      dup1\n      dup1\n      calldataload\n      swap1\n      0x20\n      add\n      swap1\n      swap2\n      swap1\n      pop\n      pop\n      jump(tag_17)\n    tag_16:\n      mload(0x40)\n      dup1\n      dup7\n      0xffffffffffffffffffffffffffffffffffffffff\n      and\n      0xffffffffffffffffffffffffffffffffffffffff\n      and\n      dup2\n      mstore\n      0x20\n      add\n      dup1\n      0x20\n      add\n      dup6\n      dup2\n      mstore\n      0x20\n      add\n      dup1\n      0x20\n      add\n      dup1\n      0x20\n      add\n      dup5\n      dup2\n      sub\n      dup5\n      mstore\n      dup9\n      dup2\n      dup2\n      sload\n      0x1\n      dup2\n      0x1\n      and\n      iszero\n      0x100\n      mul\n      sub\n      and\n      0x2\n      swap1\n      div\n      dup2\n      mstore\n      0x20\n      add\n      swap2\n      pop\n      dup1\n      sload\n      0x1\n      dup2\n      0x1\n      and\n      iszero\n      0x100\n      mul\n      sub\n      and\n      0x2\n      swap1\n      div\n      dup1\n      iszero\n      tag_18\n      jumpi\n      dup1\n      0x1f\n      lt\n      tag_19\n      jumpi\n      0x100\n      dup1\n      dup4\n      sload\n      div\n      mul\n      dup4\n      mstore\n      swap2\n      0x20\n      add\n      swap2\n      jump(tag_18)\n    tag_19:\n      dup3\n      add\n      swap2\n      swap1\n      0x0\n      mstore\n      keccak256(0x0, 0x20)\n      swap1\n    tag_20:\n      dup2\n      sload\n      dup2\n      mstore\n      swap1\n      0x1\n      add\n      swap1\n      0x20\n      add\n      dup1\n      dup4\n      gt\n      tag_20\n      jumpi\n      dup3\n      swap1\n      sub\n      0x1f\n      and\n      dup3\n      add\n      swap2\n    tag_18:\n      pop\n      pop\n      dup5\n      dup2\n      sub\n      dup4\n      mstore\n      dup7\n      dup2\n      dup2\n      sload\n      0x1\n      dup2\n      0x1\n      and\n      iszero\n      0x100\n      mul\n      sub\n      and\n      0x2\n      swap1\n      div\n      dup2\n      mstore\n      0x20\n      add\n      swap2\n      pop\n      dup1\n      sload\n      0x1\n      dup2\n      0x1\n      and\n      iszero\n      0x100\n      mul\n      sub\n      and\n      0x2\n      swap1\n      div\n      dup1\n      iszero\n      tag_21\n      jumpi\n      dup1\n      0x1f\n      lt\n      tag_22\n      jumpi\n      0x100\n      dup1\n      dup4\n      sload\n      div\n      mul\n      dup4\n      mstore\n      swap2\n      0x20\n      add\n      swap2\n      jump(tag_21)\n    tag_22:\n      dup3\n      add\n      swap2\n      swap1\n      0x0\n      mstore\n      keccak256(0x0, 0x20)\n      swap1\n    tag_23:\n      dup2\n      sload\n      dup2\n      mstore\n      swap1\n      0x1\n      add\n      swap1\n      0x20\n      add\n      dup1\n      dup4\n      gt\n      tag_23\n      jumpi\n      dup3\n      swap1\n      sub\n      0x1f\n      and\n      dup3\n      add\n      swap2\n    tag_21:\n      pop\n      pop\n      dup5\n      dup2\n      sub\n      dup3\n      mstore\n      dup6\n      dup2\n      dup2\n      sload\n      0x1\n      dup2\n      0x1\n      and\n      iszero\n      0x100\n      mul\n      sub\n      and\n      0x2\n      swap1\n      div\n      dup2\n      mstore\n      0x20\n      add\n      swap2\n      pop\n      dup1\n      sload\n      0x1\n      dup2\n      0x1\n      and\n      iszero\n      0x100\n      mul\n      sub\n      and\n      0x2\n      swap1\n      div\n      dup1\n      iszero\n      tag_24\n      jumpi\n      dup1\n      0x1f\n      lt\n      tag_25\n      jumpi\n      0x100\n      dup1\n      dup4\n      sload\n      div\n      mul\n      dup4\n      mstore\n      swap2\n      0x20\n      add\n      swap2\n      jump(tag_24)\n    tag_25:\n      dup3\n      add\n      swap2\n      swap1\n      0x0\n      mstore\n      keccak256(0x0, 0x20)\n      swap1\n    tag_26:\n      dup2\n      sload\n      dup2\n      mstore\n      swap1\n      0x1\n      add\n      swap1\n      0x20\n      add\n      dup1\n      dup4\n      gt\n      tag_26\n      jumpi\n      dup3\n      swap1\n      sub\n      0x1f\n      and\n      dup3\n      add\n      swap2\n    tag_24:\n      pop\n      pop\n      swap9\n      pop\n      pop\n      pop\n      pop\n      pop\n      pop\n      pop\n      pop\n      pop\n      mload(0x40)\n      dup1\n      swap2\n      sub\n      swap1\n      return\n        /* \"Contracts/Health.sol\":842:1104  function changePublicPass(uint _newPublicPass, uint _oldPublicPass) {\r... */\n    tag_5:\n      jumpi(tag_27, iszero(callvalue))\n      0x0\n      dup1\n      revert\n    tag_27:\n      tag_28\n      0x4\n      dup1\n      dup1\n      calldataload\n      swap1\n      0x20\n      add\n      swap1\n      swap2\n      swap1\n      dup1\n      calldataload\n      swap1\n      0x20\n      add\n      swap1\n      swap2\n      swap1\n      pop\n      pop\n      jump(tag_29)\n    tag_28:\n      stop\n        /* \"Contracts/Health.sol\":1112:1214  function purchasedMedication(uint _publicPass) {\r... */\n    tag_6:\n      jumpi(tag_30, iszero(callvalue))\n      0x0\n      dup1\n      revert\n    tag_30:\n      tag_31\n      0x4\n      dup1\n      dup1\n      calldataload\n      swap1\n      0x20\n      add\n      swap1\n      swap2\n      swap1\n      pop\n      pop\n      jump(tag_32)\n    tag_31:\n      stop\n        /* \"Contracts/Health.sol\":712:834  function addMedication(uint _publicPass, string _medication) {\r... */\n    tag_7:\n      jumpi(tag_33, iszero(callvalue))\n      0x0\n      dup1\n      revert\n    tag_33:\n      tag_34\n      0x4\n      dup1\n      dup1\n      calldataload\n      swap1\n      0x20\n      add\n      swap1\n      swap2\n      swap1\n      dup1\n      calldataload\n      swap1\n      0x20\n      add\n      swap1\n      dup3\n      add\n      dup1\n      calldataload\n      swap1\n      0x20\n      add\n      swap1\n      dup1\n      dup1\n      0x1f\n      add\n      0x20\n      dup1\n      swap2\n      div\n      mul\n      0x20\n      add\n      mload(0x40)\n      swap1\n      dup2\n      add\n      0x40\n      mstore\n      dup1\n      swap4\n      swap3\n      swap2\n      swap1\n      dup2\n      dup2\n      mstore\n      0x20\n      add\n      dup4\n      dup4\n      dup1\n      dup3\n      dup5\n      calldatacopy\n      dup3\n      add\n      swap2\n      pop\n      pop\n      pop\n      pop\n      pop\n      pop\n      swap2\n      swap1\n      pop\n      pop\n      jump(tag_35)\n    tag_34:\n      stop\n        /* \"Contracts/Health.sol\":591:704  function addDisease(uint _publicPass, string _diseases) {\r... */\n    tag_8:\n      jumpi(tag_36, iszero(callvalue))\n      0x0\n      dup1\n      revert\n    tag_36:\n      tag_37\n      0x4\n      dup1\n      dup1\n      calldataload\n      swap1\n      0x20\n      add\n      swap1\n      swap2\n      swap1\n      dup1\n      calldataload\n      swap1\n      0x20\n      add\n      swap1\n      dup3\n      add\n      dup1\n      calldataload\n      swap1\n      0x20\n      add\n      swap1\n      dup1\n      dup1\n      0x1f\n      add\n      0x20\n      dup1\n      swap2\n      div\n      mul\n      0x20\n      add\n      mload(0x40)\n      swap1\n      dup2\n      add\n      0x40\n      mstore\n      dup1\n      swap4\n      swap3\n      swap2\n      swap1\n      dup2\n      dup2\n      mstore\n      0x20\n      add\n      dup4\n      dup4\n      dup1\n      dup3\n      dup5\n      calldatacopy\n      dup3\n      add\n      swap2\n      pop\n      pop\n      pop\n      pop\n      pop\n      pop\n      swap2\n      swap1\n      pop\n      pop\n      jump(tag_38)\n    tag_37:\n      stop\n        /* \"Contracts/Health.sol\":243:477  function addPeople(string _name, uint _age, uint _publicPass)  {\r... */\n    tag_11:\n        /* \"Contracts/Health.sol\":337:469  Person({\r... */\n      0xa0\n      mload(0x40)\n      swap1\n      dup2\n      add\n      0x40\n      mstore\n      dup1\n        /* \"Contracts/Health.sol\":359:369  msg.sender */\n      caller\n        /* \"Contracts/Health.sol\":337:469  Person({\r... */\n      0xffffffffffffffffffffffffffffffffffffffff\n      and\n      dup2\n      mstore\n      0x20\n      add\n        /* \"Contracts/Health.sol\":385:390  _name */\n      dup5\n        /* \"Contracts/Health.sol\":337:469  Person({\r... */\n      dup2\n      mstore\n      0x20\n      add\n        /* \"Contracts/Health.sol\":405:409  _age */\n      dup4\n        /* \"Contracts/Health.sol\":337:469  Person({\r... */\n      dup2\n      mstore\n      0x20\n      add\n      0x40\n      dup1\n      mload\n      swap1\n      dup2\n      add\n      0x40\n      mstore\n      dup1\n      0x4\n      dup2\n      mstore\n      0x20\n      add\n      0x6e6f6e6500000000000000000000000000000000000000000000000000000000\n      dup2\n      mstore\n      pop\n      dup2\n      mstore\n      0x20\n      add\n      0x20\n      mload(0x40)\n      swap1\n      dup2\n      add\n      0x40\n      mstore\n      dup1\n      0x0\n      dup2\n      mstore\n      pop\n      dup2\n      mstore\n      pop\n        /* \"Contracts/Health.sol\":311:321  peopleData */\n      0x0\n        /* \"Contracts/Health.sol\":311:334  peopleData[_publicPass] */\n      dup1\n        /* \"Contracts/Health.sol\":322:333  _publicPass */\n      dup4\n        /* \"Contracts/Health.sol\":311:334  peopleData[_publicPass] */\n      dup2\n      mstore\n      0x20\n      add\n      swap1\n      dup2\n      mstore\n      0x20\n      add\n      0x0\n      keccak256\n        /* \"Contracts/Health.sol\":311:469  peopleData[_publicPass] = Person({\r... */\n      0x0\n      dup3\n      add\n      mload\n      dup2\n      0x0\n      add\n      exp(0x100, 0x0)\n      dup2\n      sload\n      dup2\n      0xffffffffffffffffffffffffffffffffffffffff\n      mul\n      not\n      and\n      swap1\n      dup4\n      0xffffffffffffffffffffffffffffffffffffffff\n      and\n      mul\n      or\n      swap1\n      sstore\n      pop\n      0x20\n      dup3\n      add\n      mload\n      dup2\n      0x1\n      add\n      swap1\n      dup1\n      mload\n      swap1\n      0x20\n      add\n      swap1\n      tag_40\n      swap3\n      swap2\n      swap1\n      jump\t// in(tag_41)\n    tag_40:\n      pop\n      0x40\n      dup3\n      add\n      mload\n      dup2\n      0x2\n      add\n      sstore\n      0x60\n      dup3\n      add\n      mload\n      dup2\n      0x3\n      add\n      swap1\n      dup1\n      mload\n      swap1\n      0x20\n      add\n      swap1\n      tag_42\n      swap3\n      swap2\n      swap1\n      jump\t// in(tag_41)\n    tag_42:\n      pop\n      0x80\n      dup3\n      add\n      mload\n      dup2\n      0x4\n      add\n      swap1\n      dup1\n      mload\n      swap1\n      0x20\n      add\n      swap1\n      tag_43\n      swap3\n      swap2\n      swap1\n      jump\t// in(tag_41)\n    tag_43:\n      pop\n      swap1\n      pop\n      pop\n        /* \"Contracts/Health.sol\":243:477  function addPeople(string _name, uint _age, uint _publicPass)  {\r... */\n    tag_39:\n      pop\n      pop\n      pop\n      jump\t// out\n        /* \"Contracts/Health.sol\":485:583  function changeAge(uint _publicPass, uint _age) {\r... */\n    tag_14:\n        /* \"Contracts/Health.sol\":571:575  _age */\n      dup1\n        /* \"Contracts/Health.sol\":541:551  peopleData */\n      0x0\n        /* \"Contracts/Health.sol\":541:564  peopleData[_publicPass] */\n      dup1\n        /* \"Contracts/Health.sol\":552:563  _publicPass */\n      dup5\n        /* \"Contracts/Health.sol\":541:564  peopleData[_publicPass] */\n      dup2\n      mstore\n      0x20\n      add\n      swap1\n      dup2\n      mstore\n      0x20\n      add\n      0x0\n      keccak256\n        /* \"Contracts/Health.sol\":541:568  peopleData[_publicPass].age */\n      0x2\n      add\n        /* \"Contracts/Health.sol\":541:575  peopleData[_publicPass].age = _age */\n      dup2\n      swap1\n      sstore\n      pop\n        /* \"Contracts/Health.sol\":485:583  function changeAge(uint _publicPass, uint _age) {\r... */\n    tag_44:\n      pop\n      pop\n      jump\t// out\n        /* \"Contracts/Health.sol\":161:202  mapping(uint => Person) public peopleData */\n    tag_17:\n      mstore(0x20, 0x0)\n      dup1\n      0x0\n      mstore\n      keccak256(0x0, 0x40)\n      0x0\n      swap2\n      pop\n      swap1\n      pop\n      dup1\n      0x0\n      add\n      0x0\n      swap1\n      sload\n      swap1\n      0x100\n      exp\n      swap1\n      div\n      0xffffffffffffffffffffffffffffffffffffffff\n      and\n      swap1\n      dup1\n      0x1\n      add\n      swap1\n      dup1\n      0x2\n      add\n      sload\n      swap1\n      dup1\n      0x3\n      add\n      swap1\n      dup1\n      0x4\n      add\n      swap1\n      pop\n      dup6\n      jump\t// out\n        /* \"Contracts/Health.sol\":842:1104  function changePublicPass(uint _newPublicPass, uint _oldPublicPass) {\r... */\n    tag_29:\n        /* \"Contracts/Health.sol\":935:945  peopleData */\n      0x0\n        /* \"Contracts/Health.sol\":935:961  peopleData[_oldPublicPass] */\n      dup1\n        /* \"Contracts/Health.sol\":946:960  _oldPublicPass */\n      dup3\n        /* \"Contracts/Health.sol\":935:961  peopleData[_oldPublicPass] */\n      dup2\n      mstore\n      0x20\n      add\n      swap1\n      dup2\n      mstore\n      0x20\n      add\n      0x0\n      keccak256\n        /* \"Contracts/Health.sol\":935:965  peopleData[_oldPublicPass].adr */\n      0x0\n      add\n      0x0\n      swap1\n      sload\n      swap1\n      0x100\n      exp\n      swap1\n      div\n      0xffffffffffffffffffffffffffffffffffffffff\n      and\n        /* \"Contracts/Health.sol\":921:965  msg.sender != peopleData[_oldPublicPass].adr */\n      0xffffffffffffffffffffffffffffffffffffffff\n      and\n        /* \"Contracts/Health.sol\":921:931  msg.sender */\n      caller\n        /* \"Contracts/Health.sol\":921:965  msg.sender != peopleData[_oldPublicPass].adr */\n      0xffffffffffffffffffffffffffffffffffffffff\n      and\n      eq\n      iszero\n        /* \"Contracts/Health.sol\":918:993  if(msg.sender != peopleData[_oldPublicPass].adr) {\r... */\n      iszero\n      tag_46\n      jumpi\n        /* \"Contracts/Health.sol\":976:984  revert() */\n      0x0\n      dup1\n      revert\n        /* \"Contracts/Health.sol\":918:993  if(msg.sender != peopleData[_oldPublicPass].adr) {\r... */\n    tag_46:\n        /* \"Contracts/Health.sol\":1029:1039  peopleData */\n      0x0\n        /* \"Contracts/Health.sol\":1029:1055  peopleData[_oldPublicPass] */\n      dup1\n        /* \"Contracts/Health.sol\":1040:1054  _oldPublicPass */\n      dup3\n        /* \"Contracts/Health.sol\":1029:1055  peopleData[_oldPublicPass] */\n      dup2\n      mstore\n      0x20\n      add\n      swap1\n      dup2\n      mstore\n      0x20\n      add\n      0x0\n      keccak256\n        /* \"Contracts/Health.sol\":1000:1010  peopleData */\n      0x0\n        /* \"Contracts/Health.sol\":1000:1026  peopleData[_newPublicPass] */\n      dup1\n        /* \"Contracts/Health.sol\":1011:1025  _newPublicPass */\n      dup5\n        /* \"Contracts/Health.sol\":1000:1026  peopleData[_newPublicPass] */\n      dup2\n      mstore\n      0x20\n      add\n      swap1\n      dup2\n      mstore\n      0x20\n      add\n      0x0\n      keccak256\n        /* \"Contracts/Health.sol\":1000:1055  peopleData[_newPublicPass] = peopleData[_oldPublicPass] */\n      0x0\n      dup3\n      add\n      0x0\n      swap1\n      sload\n      swap1\n      0x100\n      exp\n      swap1\n      div\n      0xffffffffffffffffffffffffffffffffffffffff\n      and\n      dup2\n      0x0\n      add\n      exp(0x100, 0x0)\n      dup2\n      sload\n      dup2\n      0xffffffffffffffffffffffffffffffffffffffff\n      mul\n      not\n      and\n      swap1\n      dup4\n      0xffffffffffffffffffffffffffffffffffffffff\n      and\n      mul\n      or\n      swap1\n      sstore\n      pop\n      0x1\n      dup3\n      add\n      dup2\n      0x1\n      add\n      swap1\n      dup1\n      sload\n      0x1\n      dup2\n      0x1\n      and\n      iszero\n      0x100\n      mul\n      sub\n      and\n      0x2\n      swap1\n      div\n      tag_47\n      swap3\n      swap2\n      swap1\n      jump\t// in(tag_48)\n    tag_47:\n      pop\n      0x2\n      dup3\n      add\n      sload\n      dup2\n      0x2\n      add\n      sstore\n      0x3\n      dup3\n      add\n      dup2\n      0x3\n      add\n      swap1\n      dup1\n      sload\n      0x1\n      dup2\n      0x1\n      and\n      iszero\n      0x100\n      mul\n      sub\n      and\n      0x2\n      swap1\n      div\n      tag_49\n      swap3\n      swap2\n      swap1\n      jump\t// in(tag_48)\n    tag_49:\n      pop\n      0x4\n      dup3\n      add\n      dup2\n      0x4\n      add\n      swap1\n      dup1\n      sload\n      0x1\n      dup2\n      0x1\n      and\n      iszero\n      0x100\n      mul\n      sub\n      and\n      0x2\n      swap1\n      div\n      tag_50\n      swap3\n      swap2\n      swap1\n      jump\t// in(tag_48)\n    tag_50:\n      pop\n      swap1\n      pop\n      pop\n        /* \"Contracts/Health.sol\":1070:1080  peopleData */\n      0x0\n        /* \"Contracts/Health.sol\":1070:1096  peopleData[_oldPublicPass] */\n      dup1\n        /* \"Contracts/Health.sol\":1081:1095  _oldPublicPass */\n      dup3\n        /* \"Contracts/Health.sol\":1070:1096  peopleData[_oldPublicPass] */\n      dup2\n      mstore\n      0x20\n      add\n      swap1\n      dup2\n      mstore\n      0x20\n      add\n      0x0\n      keccak256\n      0x0\n        /* \"Contracts/Health.sol\":1063:1096  delete peopleData[_oldPublicPass] */\n      dup1\n      dup3\n      add\n      exp(0x100, 0x0)\n      dup2\n      sload\n      swap1\n      0xffffffffffffffffffffffffffffffffffffffff\n      mul\n      not\n      and\n      swap1\n      sstore\n      0x1\n      dup3\n      add\n      0x0\n      tag_51\n      swap2\n      swap1\n      jump\t// in(tag_52)\n    tag_51:\n      0x2\n      dup3\n      add\n      0x0\n      swap1\n      sstore\n      0x3\n      dup3\n      add\n      0x0\n      tag_53\n      swap2\n      swap1\n      jump\t// in(tag_52)\n    tag_53:\n      0x4\n      dup3\n      add\n      0x0\n      tag_54\n      swap2\n      swap1\n      jump\t// in(tag_52)\n    tag_54:\n      pop\n      pop\n        /* \"Contracts/Health.sol\":842:1104  function changePublicPass(uint _newPublicPass, uint _oldPublicPass) {\r... */\n    tag_45:\n      pop\n      pop\n      jump\t// out\n        /* \"Contracts/Health.sol\":1112:1214  function purchasedMedication(uint _publicPass) {\r... */\n    tag_32:\n        /* \"Contracts/Health.sol\":1167:1206  peopleData[_publicPass].medication = \"\" */\n      0x20\n      mload(0x40)\n      swap1\n      dup2\n      add\n      0x40\n      mstore\n      dup1\n      0x0\n      dup2\n      mstore\n      pop\n        /* \"Contracts/Health.sol\":1167:1177  peopleData */\n      0x0\n        /* \"Contracts/Health.sol\":1167:1190  peopleData[_publicPass] */\n      dup1\n        /* \"Contracts/Health.sol\":1178:1189  _publicPass */\n      dup4\n        /* \"Contracts/Health.sol\":1167:1190  peopleData[_publicPass] */\n      dup2\n      mstore\n      0x20\n      add\n      swap1\n      dup2\n      mstore\n      0x20\n      add\n      0x0\n      keccak256\n        /* \"Contracts/Health.sol\":1167:1201  peopleData[_publicPass].medication */\n      0x4\n      add\n        /* \"Contracts/Health.sol\":1167:1206  peopleData[_publicPass].medication = \"\" */\n      swap1\n      dup1\n      mload\n      swap1\n      0x20\n      add\n      swap1\n      tag_56\n      swap3\n      swap2\n      swap1\n      jump\t// in(tag_57)\n    tag_56:\n      pop\n        /* \"Contracts/Health.sol\":1112:1214  function purchasedMedication(uint _publicPass) {\r... */\n    tag_55:\n      pop\n      jump\t// out\n        /* \"Contracts/Health.sol\":712:834  function addMedication(uint _publicPass, string _medication) {\r... */\n    tag_35:\n        /* \"Contracts/Health.sol\":815:826  _medication */\n      dup1\n        /* \"Contracts/Health.sol\":778:788  peopleData */\n      0x0\n        /* \"Contracts/Health.sol\":778:801  peopleData[_publicPass] */\n      dup1\n        /* \"Contracts/Health.sol\":789:800  _publicPass */\n      dup5\n        /* \"Contracts/Health.sol\":778:801  peopleData[_publicPass] */\n      dup2\n      mstore\n      0x20\n      add\n      swap1\n      dup2\n      mstore\n      0x20\n      add\n      0x0\n      keccak256\n        /* \"Contracts/Health.sol\":778:812  peopleData[_publicPass].medication */\n      0x4\n      add\n        /* \"Contracts/Health.sol\":778:826  peopleData[_publicPass].medication = _medication */\n      swap1\n      dup1\n      mload\n      swap1\n      0x20\n      add\n      swap1\n      tag_59\n      swap3\n      swap2\n      swap1\n      jump\t// in(tag_57)\n    tag_59:\n      pop\n        /* \"Contracts/Health.sol\":712:834  function addMedication(uint _publicPass, string _medication) {\r... */\n    tag_58:\n      pop\n      pop\n      jump\t// out\n        /* \"Contracts/Health.sol\":591:704  function addDisease(uint _publicPass, string _diseases) {\r... */\n    tag_38:\n        /* \"Contracts/Health.sol\":687:696  _diseases */\n      dup1\n        /* \"Contracts/Health.sol\":652:662  peopleData */\n      0x0\n        /* \"Contracts/Health.sol\":652:675  peopleData[_publicPass] */\n      dup1\n        /* \"Contracts/Health.sol\":663:674  _publicPass */\n      dup5\n        /* \"Contracts/Health.sol\":652:675  peopleData[_publicPass] */\n      dup2\n      mstore\n      0x20\n      add\n      swap1\n      dup2\n      mstore\n      0x20\n      add\n      0x0\n      keccak256\n        /* \"Contracts/Health.sol\":652:684  peopleData[_publicPass].diseases */\n      0x3\n      add\n        /* \"Contracts/Health.sol\":652:696  peopleData[_publicPass].diseases = _diseases */\n      swap1\n      dup1\n      mload\n      swap1\n      0x20\n      add\n      swap1\n      tag_61\n      swap3\n      swap2\n      swap1\n      jump\t// in(tag_57)\n    tag_61:\n      pop\n        /* \"Contracts/Health.sol\":591:704  function addDisease(uint _publicPass, string _diseases) {\r... */\n    tag_60:\n      pop\n      pop\n      jump\t// out\n        /* \"Contracts/Health.sol\":28:1220  contract Health {\r... */\n    tag_41:\n      dup3\n      dup1\n      sload\n      0x1\n      dup2\n      0x1\n      and\n      iszero\n      0x100\n      mul\n      sub\n      and\n      0x2\n      swap1\n      div\n      swap1\n      0x0\n      mstore\n      keccak256(0x0, 0x20)\n      swap1\n      0x1f\n      add\n      0x20\n      swap1\n      div\n      dup2\n      add\n      swap3\n      dup3\n      0x1f\n      lt\n      tag_63\n      jumpi\n      dup1\n      mload\n      not(0xff)\n      and\n      dup4\n      dup1\n      add\n      or\n      dup6\n      sstore\n      jump(tag_62)\n    tag_63:\n      dup3\n      dup1\n      add\n      0x1\n      add\n      dup6\n      sstore\n      dup3\n      iszero\n      tag_62\n      jumpi\n      swap2\n      dup3\n      add\n    tag_64:\n      dup3\n      dup2\n      gt\n      iszero\n      tag_65\n      jumpi\n      dup3\n      mload\n      dup3\n      sstore\n      swap2\n      0x20\n      add\n      swap2\n      swap1\n      0x1\n      add\n      swap1\n      jump(tag_64)\n    tag_65:\n    tag_62:\n      pop\n      swap1\n      pop\n      tag_66\n      swap2\n      swap1\n      jump\t// in(tag_67)\n    tag_66:\n      pop\n      swap1\n      jump\t// out\n    tag_48:\n      dup3\n      dup1\n      sload\n      0x1\n      dup2\n      0x1\n      and\n      iszero\n      0x100\n      mul\n      sub\n      and\n      0x2\n      swap1\n      div\n      swap1\n      0x0\n      mstore\n      keccak256(0x0, 0x20)\n      swap1\n      0x1f\n      add\n      0x20\n      swap1\n      div\n      dup2\n      add\n      swap3\n      dup3\n      0x1f\n      lt\n      tag_69\n      jumpi\n      dup1\n      sload\n      dup6\n      sstore\n      jump(tag_68)\n    tag_69:\n      dup3\n      dup1\n      add\n      0x1\n      add\n      dup6\n      sstore\n      dup3\n      iszero\n      tag_68\n      jumpi\n      0x0\n      mstore\n      keccak256(0x0, 0x20)\n      swap2\n      0x1f\n      add\n      0x20\n      swap1\n      div\n      dup3\n      add\n    tag_70:\n      dup3\n      dup2\n      gt\n      iszero\n      tag_71\n      jumpi\n      dup3\n      sload\n      dup3\n      sstore\n      swap2\n      0x1\n      add\n      swap2\n      swap1\n      0x1\n      add\n      swap1\n      jump(tag_70)\n    tag_71:\n    tag_68:\n      pop\n      swap1\n      pop\n      tag_72\n      swap2\n      swap1\n      jump\t// in(tag_67)\n    tag_72:\n      pop\n      swap1\n      jump\t// out\n    tag_52:\n      pop\n      dup1\n      sload\n      0x1\n      dup2\n      0x1\n      and\n      iszero\n      0x100\n      mul\n      sub\n      and\n      0x2\n      swap1\n      div\n      0x0\n      dup3\n      sstore\n      dup1\n      0x1f\n      lt\n      tag_74\n      jumpi\n      pop\n      jump(tag_73)\n    tag_74:\n      0x1f\n      add\n      0x20\n      swap1\n      div\n      swap1\n      0x0\n      mstore\n      keccak256(0x0, 0x20)\n      swap1\n      dup2\n      add\n      swap1\n      tag_75\n      swap2\n      swap1\n      jump\t// in(tag_67)\n    tag_75:\n    tag_73:\n      pop\n      jump\t// out\n    tag_57:\n      dup3\n      dup1\n      sload\n      0x1\n      dup2\n      0x1\n      and\n      iszero\n      0x100\n      mul\n      sub\n      and\n      0x2\n      swap1\n      div\n      swap1\n      0x0\n      mstore\n      keccak256(0x0, 0x20)\n      swap1\n      0x1f\n      add\n      0x20\n      swap1\n      div\n      dup2\n      add\n      swap3\n      dup3\n      0x1f\n      lt\n      tag_77\n      jumpi\n      dup1\n      mload\n      not(0xff)\n      and\n      dup4\n      dup1\n      add\n      or\n      dup6\n      sstore\n      jump(tag_76)\n    tag_77:\n      dup3\n      dup1\n      add\n      0x1\n      add\n      dup6\n      sstore\n      dup3\n      iszero\n      tag_76\n      jumpi\n      swap2\n      dup3\n      add\n    tag_78:\n      dup3\n      dup2\n      gt\n      iszero\n      tag_79\n      jumpi\n      dup3\n      mload\n      dup3\n      sstore\n      swap2\n      0x20\n      add\n      swap2\n      swap1\n      0x1\n      add\n      swap1\n      jump(tag_78)\n    tag_79:\n    tag_76:\n      pop\n      swap1\n      pop\n      tag_80\n      swap2\n      swap1\n      jump\t// in(tag_67)\n    tag_80:\n      pop\n      swap1\n      jump\t// out\n    tag_67:\n      tag_81\n      swap2\n      swap1\n    tag_82:\n      dup1\n      dup3\n      gt\n      iszero\n      tag_83\n      jumpi\n      0x0\n      dup2\n      0x0\n      swap1\n      sstore\n      pop\n      0x1\n      add\n      jump(tag_82)\n    tag_83:\n      pop\n      swap1\n      jump\n    tag_81:\n      swap1\n      jump\t// out\n\n    auxdata: 0xa165627a7a72305820524c489deb999def37d4b2a56838cce00eca7ead3174cbd14d46a49454708c420029\n}\n",
				"bytecode": {
					"linkReferences": {},
					"object": "6060604052341561000f57600080fd5b5b5b5b610aad806100216000396000f30060606040523615610081576000357c0100000000000000000000000000000000000000000000000000000000900463ffffffff1680630b6dde0c1461008657806320de6831146100f557806373ea23d91461012157806379ecb90b14610326578063d0db789914610352578063f3abea8314610375578063f82d4db3146103db575b600080fd5b341561009157600080fd5b6100f3600480803590602001908201803590602001908080601f01602080910402602001604051908101604052809392919081815260200183838082843782019150505050505091908035906020019091908035906020019091905050610441565b005b341561010057600080fd5b61011f6004808035906020019091908035906020019091905050610587565b005b341561012c57600080fd5b61014260048080359060200190919050506105a6565b604051808673ffffffffffffffffffffffffffffffffffffffff1673ffffffffffffffffffffffffffffffffffffffff16815260200180602001858152602001806020018060200184810384528881815460018160011615610100020316600290048152602001915080546001816001161561010002031660029004801561020b5780601f106101e05761010080835404028352916020019161020b565b820191906000526020600020905b8154815290600101906020018083116101ee57829003601f168201915b505084810383528681815460018160011615610100020316600290048152602001915080546001816001161561010002031660029004801561028e5780601f106102635761010080835404028352916020019161028e565b820191906000526020600020905b81548152906001019060200180831161027157829003601f168201915b50508481038252858181546001816001161561010002031660029004815260200191508054600181600116156101000203166002900480156103115780601f106102e657610100808354040283529160200191610311565b820191906000526020600020905b8154815290600101906020018083116102f457829003601f168201915b50509850505050505050505060405180910390f35b341561033157600080fd5b61035060048080359060200190919080359060200190919050506105f9565b005b341561035d57600080fd5b61037360048080359060200190919050506107f1565b005b341561038057600080fd5b6103d9600480803590602001909190803590602001908201803590602001908080601f0160208091040260200160405190810160405280939291908181526020018383808284378201915050505050509190505061082f565b005b34156103e657600080fd5b61043f600480803590602001909190803590602001908201803590602001908080601f0160208091040260200160405190810160405280939291908181526020018383808284378201915050505050509190505061085e565b005b60a0604051908101604052803373ffffffffffffffffffffffffffffffffffffffff1681526020018481526020018381526020016040805190810160405280600481526020017f6e6f6e65000000000000000000000000000000000000000000000000000000008152508152602001602060405190810160405280600081525081525060008083815260200190815260200160002060008201518160000160006101000a81548173ffffffffffffffffffffffffffffffffffffffff021916908373ffffffffffffffffffffffffffffffffffffffff160217905550602082015181600101908051906020019061053992919061088d565b5060408201518160020155606082015181600301908051906020019061056092919061088d565b50608082015181600401908051906020019061057d92919061088d565b509050505b505050565b80600080848152602001908152602001600020600201819055505b5050565b60006020528060005260406000206000915090508060000160009054906101000a900473ffffffffffffffffffffffffffffffffffffffff16908060010190806002015490806003019080600401905085565b60008082815260200190815260200160002060000160009054906101000a900473ffffffffffffffffffffffffffffffffffffffff1673ffffffffffffffffffffffffffffffffffffffff163373ffffffffffffffffffffffffffffffffffffffff1614151561066857600080fd5b6000808281526020019081526020016000206000808481526020019081526020016000206000820160009054906101000a900473ffffffffffffffffffffffffffffffffffffffff168160000160006101000a81548173ffffffffffffffffffffffffffffffffffffffff021916908373ffffffffffffffffffffffffffffffffffffffff1602179055506001820181600101908054600181600116156101000203166002900461071a92919061090d565b50600282015481600201556003820181600301908054600181600116156101000203166002900461074c92919061090d565b506004820181600401908054600181600116156101000203166002900461077492919061090d565b50905050600080828152602001908152602001600020600080820160006101000a81549073ffffffffffffffffffffffffffffffffffffffff02191690556001820160006107c29190610994565b60028201600090556003820160006107da9190610994565b6004820160006107ea9190610994565b50505b5050565b6020604051908101604052806000815250600080838152602001908152602001600020600401908051906020019061082a9291906109dc565b505b50565b8060008084815260200190815260200160002060040190805190602001906108589291906109dc565b505b5050565b8060008084815260200190815260200160002060030190805190602001906108879291906109dc565b505b5050565b828054600181600116156101000203166002900490600052602060002090601f016020900481019282601f106108ce57805160ff19168380011785556108fc565b828001600101855582156108fc579182015b828111156108fb5782518255916020019190600101906108e0565b5b5090506109099190610a5c565b5090565b828054600181600116156101000203166002900490600052602060002090601f016020900481019282601f106109465780548555610983565b8280016001018555821561098357600052602060002091601f016020900482015b82811115610982578254825591600101919060010190610967565b5b5090506109909190610a5c565b5090565b50805460018160011615610100020316600290046000825580601f106109ba57506109d9565b601f0160209004906000526020600020908101906109d89190610a5c565b5b50565b828054600181600116156101000203166002900490600052602060002090601f016020900481019282601f10610a1d57805160ff1916838001178555610a4b565b82800160010185558215610a4b579182015b82811115610a4a578251825591602001919060010190610a2f565b5b509050610a589190610a5c565b5090565b610a7e91905b80821115610a7a576000816000905550600101610a62565b5090565b905600a165627a7a72305820524c489deb999def37d4b2a56838cce00eca7ead3174cbd14d46a49454708c420029",
					"opcodes": "PUSH1 0x60 PUSH1 0x40 MSTORE CALLVALUE ISZERO PUSH2 0xF JUMPI PUSH1 0x0 DUP1 REVERT JUMPDEST JUMPDEST JUMPDEST JUMPDEST PUSH2 0xAAD DUP1 PUSH2 0x21 PUSH1 0x0 CODECOPY PUSH1 0x0 RETURN STOP PUSH1 0x60 PUSH1 0x40 MSTORE CALLDATASIZE ISZERO PUSH2 0x81 JUMPI PUSH1 0x0 CALLDATALOAD PUSH29 0x100000000000000000000000000000000000000000000000000000000 SWAP1 DIV PUSH4 0xFFFFFFFF AND DUP1 PUSH4 0xB6DDE0C EQ PUSH2 0x86 JUMPI DUP1 PUSH4 0x20DE6831 EQ PUSH2 0xF5 JUMPI DUP1 PUSH4 0x73EA23D9 EQ PUSH2 0x121 JUMPI DUP1 PUSH4 0x79ECB90B EQ PUSH2 0x326 JUMPI DUP1 PUSH4 0xD0DB7899 EQ PUSH2 0x352 JUMPI DUP1 PUSH4 0xF3ABEA83 EQ PUSH2 0x375 JUMPI DUP1 PUSH4 0xF82D4DB3 EQ PUSH2 0x3DB JUMPI JUMPDEST PUSH1 0x0 DUP1 REVERT JUMPDEST CALLVALUE ISZERO PUSH2 0x91 JUMPI PUSH1 0x0 DUP1 REVERT JUMPDEST PUSH2 0xF3 PUSH1 0x4 DUP1 DUP1 CALLDATALOAD SWAP1 PUSH1 0x20 ADD SWAP1 DUP3 ADD DUP1 CALLDATALOAD SWAP1 PUSH1 0x20 ADD SWAP1 DUP1 DUP1 PUSH1 0x1F ADD PUSH1 0x20 DUP1 SWAP2 DIV MUL PUSH1 0x20 ADD PUSH1 0x40 MLOAD SWAP1 DUP2 ADD PUSH1 0x40 MSTORE DUP1 SWAP4 SWAP3 SWAP2 SWAP1 DUP2 DUP2 MSTORE PUSH1 0x20 ADD DUP4 DUP4 DUP1 DUP3 DUP5 CALLDATACOPY DUP3 ADD SWAP2 POP POP POP POP POP POP SWAP2 SWAP1 DUP1 CALLDATALOAD SWAP1 PUSH1 0x20 ADD SWAP1 SWAP2 SWAP1 DUP1 CALLDATALOAD SWAP1 PUSH1 0x20 ADD SWAP1 SWAP2 SWAP1 POP POP PUSH2 0x441 JUMP JUMPDEST STOP JUMPDEST CALLVALUE ISZERO PUSH2 0x100 JUMPI PUSH1 0x0 DUP1 REVERT JUMPDEST PUSH2 0x11F PUSH1 0x4 DUP1 DUP1 CALLDATALOAD SWAP1 PUSH1 0x20 ADD SWAP1 SWAP2 SWAP1 DUP1 CALLDATALOAD SWAP1 PUSH1 0x20 ADD SWAP1 SWAP2 SWAP1 POP POP PUSH2 0x587 JUMP JUMPDEST STOP JUMPDEST CALLVALUE ISZERO PUSH2 0x12C JUMPI PUSH1 0x0 DUP1 REVERT JUMPDEST PUSH2 0x142 PUSH1 0x4 DUP1 DUP1 CALLDATALOAD SWAP1 PUSH1 0x20 ADD SWAP1 SWAP2 SWAP1 POP POP PUSH2 0x5A6 JUMP JUMPDEST PUSH1 0x40 MLOAD DUP1 DUP7 PUSH20 0xFFFFFFFFFFFFFFFFFFFFFFFFFFFFFFFFFFFFFFFF AND PUSH20 0xFFFFFFFFFFFFFFFFFFFFFFFFFFFFFFFFFFFFFFFF AND DUP2 MSTORE PUSH1 0x20 ADD DUP1 PUSH1 0x20 ADD DUP6 DUP2 MSTORE PUSH1 0x20 ADD DUP1 PUSH1 0x20 ADD DUP1 PUSH1 0x20 ADD DUP5 DUP2 SUB DUP5 MSTORE DUP9 DUP2 DUP2 SLOAD PUSH1 0x1 DUP2 PUSH1 0x1 AND ISZERO PUSH2 0x100 MUL SUB AND PUSH1 0x2 SWAP1 DIV DUP2 MSTORE PUSH1 0x20 ADD SWAP2 POP DUP1 SLOAD PUSH1 0x1 DUP2 PUSH1 0x1 AND ISZERO PUSH2 0x100 MUL SUB AND PUSH1 0x2 SWAP1 DIV DUP1 ISZERO PUSH2 0x20B JUMPI DUP1 PUSH1 0x1F LT PUSH2 0x1E0 JUMPI PUSH2 0x100 DUP1 DUP4 SLOAD DIV MUL DUP4 MSTORE SWAP2 PUSH1 0x20 ADD SWAP2 PUSH2 0x20B JUMP JUMPDEST DUP3 ADD SWAP2 SWAP1 PUSH1 0x0 MSTORE PUSH1 0x20 PUSH1 0x0 KECCAK256 SWAP1 JUMPDEST DUP2 SLOAD DUP2 MSTORE SWAP1 PUSH1 0x1 ADD SWAP1 PUSH1 0x20 ADD DUP1 DUP4 GT PUSH2 0x1EE JUMPI DUP3 SWAP1 SUB PUSH1 0x1F AND DUP3 ADD SWAP2 JUMPDEST POP POP DUP5 DUP2 SUB DUP4 MSTORE DUP7 DUP2 DUP2 SLOAD PUSH1 0x1 DUP2 PUSH1 0x1 AND ISZERO PUSH2 0x100 MUL SUB AND PUSH1 0x2 SWAP1 DIV DUP2 MSTORE PUSH1 0x20 ADD SWAP2 POP DUP1 SLOAD PUSH1 0x1 DUP2 PUSH1 0x1 AND ISZERO PUSH2 0x100 MUL SUB AND PUSH1 0x2 SWAP1 DIV DUP1 ISZERO PUSH2 0x28E JUMPI DUP1 PUSH1 0x1F LT PUSH2 0x263 JUMPI PUSH2 0x100 DUP1 DUP4 SLOAD DIV MUL DUP4 MSTORE SWAP2 PUSH1 0x20 ADD SWAP2 PUSH2 0x28E JUMP JUMPDEST DUP3 ADD SWAP2 SWAP1 PUSH1 0x0 MSTORE PUSH1 0x20 PUSH1 0x0 KECCAK256 SWAP1 JUMPDEST DUP2 SLOAD DUP2 MSTORE SWAP1 PUSH1 0x1 ADD SWAP1 PUSH1 0x20 ADD DUP1 DUP4 GT PUSH2 0x271 JUMPI DUP3 SWAP1 SUB PUSH1 0x1F AND DUP3 ADD SWAP2 JUMPDEST POP POP DUP5 DUP2 SUB DUP3 MSTORE DUP6 DUP2 DUP2 SLOAD PUSH1 0x1 DUP2 PUSH1 0x1 AND ISZERO PUSH2 0x100 MUL SUB AND PUSH1 0x2 SWAP1 DIV DUP2 MSTORE PUSH1 0x20 ADD SWAP2 POP DUP1 SLOAD PUSH1 0x1 DUP2 PUSH1 0x1 AND ISZERO PUSH2 0x100 MUL SUB AND PUSH1 0x2 SWAP1 DIV DUP1 ISZERO PUSH2 0x311 JUMPI DUP1 PUSH1 0x1F LT PUSH2 0x2E6 JUMPI PUSH2 0x100 DUP1 DUP4 SLOAD DIV MUL DUP4 MSTORE SWAP2 PUSH1 0x20 ADD SWAP2 PUSH2 0x311 JUMP JUMPDEST DUP3 ADD SWAP2 SWAP1 PUSH1 0x0 MSTORE PUSH1 0x20 PUSH1 0x0 KECCAK256 SWAP1 JUMPDEST DUP2 SLOAD DUP2 MSTORE SWAP1 PUSH1 0x1 ADD SWAP1 PUSH1 0x20 ADD DUP1 DUP4 GT PUSH2 0x2F4 JUMPI DUP3 SWAP1 SUB PUSH1 0x1F AND DUP3 ADD SWAP2 JUMPDEST POP POP SWAP9 POP POP POP POP POP POP POP POP POP PUSH1 0x40 MLOAD DUP1 SWAP2 SUB SWAP1 RETURN JUMPDEST CALLVALUE ISZERO PUSH2 0x331 JUMPI PUSH1 0x0 DUP1 REVERT JUMPDEST PUSH2 0x350 PUSH1 0x4 DUP1 DUP1 CALLDATALOAD SWAP1 PUSH1 0x20 ADD SWAP1 SWAP2 SWAP1 DUP1 CALLDATALOAD SWAP1 PUSH1 0x20 ADD SWAP1 SWAP2 SWAP1 POP POP PUSH2 0x5F9 JUMP JUMPDEST STOP JUMPDEST CALLVALUE ISZERO PUSH2 0x35D JUMPI PUSH1 0x0 DUP1 REVERT JUMPDEST PUSH2 0x373 PUSH1 0x4 DUP1 DUP1 CALLDATALOAD SWAP1 PUSH1 0x20 ADD SWAP1 SWAP2 SWAP1 POP POP PUSH2 0x7F1 JUMP JUMPDEST STOP JUMPDEST CALLVALUE ISZERO PUSH2 0x380 JUMPI PUSH1 0x0 DUP1 REVERT JUMPDEST PUSH2 0x3D9 PUSH1 0x4 DUP1 DUP1 CALLDATALOAD SWAP1 PUSH1 0x20 ADD SWAP1 SWAP2 SWAP1 DUP1 CALLDATALOAD SWAP1 PUSH1 0x20 ADD SWAP1 DUP3 ADD DUP1 CALLDATALOAD SWAP1 PUSH1 0x20 ADD SWAP1 DUP1 DUP1 PUSH1 0x1F ADD PUSH1 0x20 DUP1 SWAP2 DIV MUL PUSH1 0x20 ADD PUSH1 0x40 MLOAD SWAP1 DUP2 ADD PUSH1 0x40 MSTORE DUP1 SWAP4 SWAP3 SWAP2 SWAP1 DUP2 DUP2 MSTORE PUSH1 0x20 ADD DUP4 DUP4 DUP1 DUP3 DUP5 CALLDATACOPY DUP3 ADD SWAP2 POP POP POP POP POP POP SWAP2 SWAP1 POP POP PUSH2 0x82F JUMP JUMPDEST STOP JUMPDEST CALLVALUE ISZERO PUSH2 0x3E6 JUMPI PUSH1 0x0 DUP1 REVERT JUMPDEST PUSH2 0x43F PUSH1 0x4 DUP1 DUP1 CALLDATALOAD SWAP1 PUSH1 0x20 ADD SWAP1 SWAP2 SWAP1 DUP1 CALLDATALOAD SWAP1 PUSH1 0x20 ADD SWAP1 DUP3 ADD DUP1 CALLDATALOAD SWAP1 PUSH1 0x20 ADD SWAP1 DUP1 DUP1 PUSH1 0x1F ADD PUSH1 0x20 DUP1 SWAP2 DIV MUL PUSH1 0x20 ADD PUSH1 0x40 MLOAD SWAP1 DUP2 ADD PUSH1 0x40 MSTORE DUP1 SWAP4 SWAP3 SWAP2 SWAP1 DUP2 DUP2 MSTORE PUSH1 0x20 ADD DUP4 DUP4 DUP1 DUP3 DUP5 CALLDATACOPY DUP3 ADD SWAP2 POP POP POP POP POP POP SWAP2 SWAP1 POP POP PUSH2 0x85E JUMP JUMPDEST STOP JUMPDEST PUSH1 0xA0 PUSH1 0x40 MLOAD SWAP1 DUP2 ADD PUSH1 0x40 MSTORE DUP1 CALLER PUSH20 0xFFFFFFFFFFFFFFFFFFFFFFFFFFFFFFFFFFFFFFFF AND DUP2 MSTORE PUSH1 0x20 ADD DUP5 DUP2 MSTORE PUSH1 0x20 ADD DUP4 DUP2 MSTORE PUSH1 0x20 ADD PUSH1 0x40 DUP1 MLOAD SWAP1 DUP2 ADD PUSH1 0x40 MSTORE DUP1 PUSH1 0x4 DUP2 MSTORE PUSH1 0x20 ADD PUSH32 0x6E6F6E6500000000000000000000000000000000000000000000000000000000 DUP2 MSTORE POP DUP2 MSTORE PUSH1 0x20 ADD PUSH1 0x20 PUSH1 0x40 MLOAD SWAP1 DUP2 ADD PUSH1 0x40 MSTORE DUP1 PUSH1 0x0 DUP2 MSTORE POP DUP2 MSTORE POP PUSH1 0x0 DUP1 DUP4 DUP2 MSTORE PUSH1 0x20 ADD SWAP1 DUP2 MSTORE PUSH1 0x20 ADD PUSH1 0x0 KECCAK256 PUSH1 0x0 DUP3 ADD MLOAD DUP2 PUSH1 0x0 ADD PUSH1 0x0 PUSH2 0x100 EXP DUP2 SLOAD DUP2 PUSH20 0xFFFFFFFFFFFFFFFFFFFFFFFFFFFFFFFFFFFFFFFF MUL NOT AND SWAP1 DUP4 PUSH20 0xFFFFFFFFFFFFFFFFFFFFFFFFFFFFFFFFFFFFFFFF AND MUL OR SWAP1 SSTORE POP PUSH1 0x20 DUP3 ADD MLOAD DUP2 PUSH1 0x1 ADD SWAP1 DUP1 MLOAD SWAP1 PUSH1 0x20 ADD SWAP1 PUSH2 0x539 SWAP3 SWAP2 SWAP1 PUSH2 0x88D JUMP JUMPDEST POP PUSH1 0x40 DUP3 ADD MLOAD DUP2 PUSH1 0x2 ADD SSTORE PUSH1 0x60 DUP3 ADD MLOAD DUP2 PUSH1 0x3 ADD SWAP1 DUP1 MLOAD SWAP1 PUSH1 0x20 ADD SWAP1 PUSH2 0x560 SWAP3 SWAP2 SWAP1 PUSH2 0x88D JUMP JUMPDEST POP PUSH1 0x80 DUP3 ADD MLOAD DUP2 PUSH1 0x4 ADD SWAP1 DUP1 MLOAD SWAP1 PUSH1 0x20 ADD SWAP1 PUSH2 0x57D SWAP3 SWAP2 SWAP1 PUSH2 0x88D JUMP JUMPDEST POP SWAP1 POP POP JUMPDEST POP POP POP JUMP JUMPDEST DUP1 PUSH1 0x0 DUP1 DUP5 DUP2 MSTORE PUSH1 0x20 ADD SWAP1 DUP2 MSTORE PUSH1 0x20 ADD PUSH1 0x0 KECCAK256 PUSH1 0x2 ADD DUP2 SWAP1 SSTORE POP JUMPDEST POP POP JUMP JUMPDEST PUSH1 0x0 PUSH1 0x20 MSTORE DUP1 PUSH1 0x0 MSTORE PUSH1 0x40 PUSH1 0x0 KECCAK256 PUSH1 0x0 SWAP2 POP SWAP1 POP DUP1 PUSH1 0x0 ADD PUSH1 0x0 SWAP1 SLOAD SWAP1 PUSH2 0x100 EXP SWAP1 DIV PUSH20 0xFFFFFFFFFFFFFFFFFFFFFFFFFFFFFFFFFFFFFFFF AND SWAP1 DUP1 PUSH1 0x1 ADD SWAP1 DUP1 PUSH1 0x2 ADD SLOAD SWAP1 DUP1 PUSH1 0x3 ADD SWAP1 DUP1 PUSH1 0x4 ADD SWAP1 POP DUP6 JUMP JUMPDEST PUSH1 0x0 DUP1 DUP3 DUP2 MSTORE PUSH1 0x20 ADD SWAP1 DUP2 MSTORE PUSH1 0x20 ADD PUSH1 0x0 KECCAK256 PUSH1 0x0 ADD PUSH1 0x0 SWAP1 SLOAD SWAP1 PUSH2 0x100 EXP SWAP1 DIV PUSH20 0xFFFFFFFFFFFFFFFFFFFFFFFFFFFFFFFFFFFFFFFF AND PUSH20 0xFFFFFFFFFFFFFFFFFFFFFFFFFFFFFFFFFFFFFFFF AND CALLER PUSH20 0xFFFFFFFFFFFFFFFFFFFFFFFFFFFFFFFFFFFFFFFF AND EQ ISZERO ISZERO PUSH2 0x668 JUMPI PUSH1 0x0 DUP1 REVERT JUMPDEST PUSH1 0x0 DUP1 DUP3 DUP2 MSTORE PUSH1 0x20 ADD SWAP1 DUP2 MSTORE PUSH1 0x20 ADD PUSH1 0x0 KECCAK256 PUSH1 0x0 DUP1 DUP5 DUP2 MSTORE PUSH1 0x20 ADD SWAP1 DUP2 MSTORE PUSH1 0x20 ADD PUSH1 0x0 KECCAK256 PUSH1 0x0 DUP3 ADD PUSH1 0x0 SWAP1 SLOAD SWAP1 PUSH2 0x100 EXP SWAP1 DIV PUSH20 0xFFFFFFFFFFFFFFFFFFFFFFFFFFFFFFFFFFFFFFFF AND DUP2 PUSH1 0x0 ADD PUSH1 0x0 PUSH2 0x100 EXP DUP2 SLOAD DUP2 PUSH20 0xFFFFFFFFFFFFFFFFFFFFFFFFFFFFFFFFFFFFFFFF MUL NOT AND SWAP1 DUP4 PUSH20 0xFFFFFFFFFFFFFFFFFFFFFFFFFFFFFFFFFFFFFFFF AND MUL OR SWAP1 SSTORE POP PUSH1 0x1 DUP3 ADD DUP2 PUSH1 0x1 ADD SWAP1 DUP1 SLOAD PUSH1 0x1 DUP2 PUSH1 0x1 AND ISZERO PUSH2 0x100 MUL SUB AND PUSH1 0x2 SWAP1 DIV PUSH2 0x71A SWAP3 SWAP2 SWAP1 PUSH2 0x90D JUMP JUMPDEST POP PUSH1 0x2 DUP3 ADD SLOAD DUP2 PUSH1 0x2 ADD SSTORE PUSH1 0x3 DUP3 ADD DUP2 PUSH1 0x3 ADD SWAP1 DUP1 SLOAD PUSH1 0x1 DUP2 PUSH1 0x1 AND ISZERO PUSH2 0x100 MUL SUB AND PUSH1 0x2 SWAP1 DIV PUSH2 0x74C SWAP3 SWAP2 SWAP1 PUSH2 0x90D JUMP JUMPDEST POP PUSH1 0x4 DUP3 ADD DUP2 PUSH1 0x4 ADD SWAP1 DUP1 SLOAD PUSH1 0x1 DUP2 PUSH1 0x1 AND ISZERO PUSH2 0x100 MUL SUB AND PUSH1 0x2 SWAP1 DIV PUSH2 0x774 SWAP3 SWAP2 SWAP1 PUSH2 0x90D JUMP JUMPDEST POP SWAP1 POP POP PUSH1 0x0 DUP1 DUP3 DUP2 MSTORE PUSH1 0x20 ADD SWAP1 DUP2 MSTORE PUSH1 0x20 ADD PUSH1 0x0 KECCAK256 PUSH1 0x0 DUP1 DUP3 ADD PUSH1 0x0 PUSH2 0x100 EXP DUP2 SLOAD SWAP1 PUSH20 0xFFFFFFFFFFFFFFFFFFFFFFFFFFFFFFFFFFFFFFFF MUL NOT AND SWAP1 SSTORE PUSH1 0x1 DUP3 ADD PUSH1 0x0 PUSH2 0x7C2 SWAP2 SWAP1 PUSH2 0x994 JUMP JUMPDEST PUSH1 0x2 DUP3 ADD PUSH1 0x0 SWAP1 SSTORE PUSH1 0x3 DUP3 ADD PUSH1 0x0 PUSH2 0x7DA SWAP2 SWAP1 PUSH2 0x994 JUMP JUMPDEST PUSH1 0x4 DUP3 ADD PUSH1 0x0 PUSH2 0x7EA SWAP2 SWAP1 PUSH2 0x994 JUMP JUMPDEST POP POP JUMPDEST POP POP JUMP JUMPDEST PUSH1 0x20 PUSH1 0x40 MLOAD SWAP1 DUP2 ADD PUSH1 0x40 MSTORE DUP1 PUSH1 0x0 DUP2 MSTORE POP PUSH1 0x0 DUP1 DUP4 DUP2 MSTORE PUSH1 0x20 ADD SWAP1 DUP2 MSTORE PUSH1 0x20 ADD PUSH1 0x0 KECCAK256 PUSH1 0x4 ADD SWAP1 DUP1 MLOAD SWAP1 PUSH1 0x20 ADD SWAP1 PUSH2 0x82A SWAP3 SWAP2 SWAP1 PUSH2 0x9DC JUMP JUMPDEST POP JUMPDEST POP JUMP JUMPDEST DUP1 PUSH1 0x0 DUP1 DUP5 DUP2 MSTORE PUSH1 0x20 ADD SWAP1 DUP2 MSTORE PUSH1 0x20 ADD PUSH1 0x0 KECCAK256 PUSH1 0x4 ADD SWAP1 DUP1 MLOAD SWAP1 PUSH1 0x20 ADD SWAP1 PUSH2 0x858 SWAP3 SWAP2 SWAP1 PUSH2 0x9DC JUMP JUMPDEST POP JUMPDEST POP POP JUMP JUMPDEST DUP1 PUSH1 0x0 DUP1 DUP5 DUP2 MSTORE PUSH1 0x20 ADD SWAP1 DUP2 MSTORE PUSH1 0x20 ADD PUSH1 0x0 KECCAK256 PUSH1 0x3 ADD SWAP1 DUP1 MLOAD SWAP1 PUSH1 0x20 ADD SWAP1 PUSH2 0x887 SWAP3 SWAP2 SWAP1 PUSH2 0x9DC JUMP JUMPDEST POP JUMPDEST POP POP JUMP JUMPDEST DUP3 DUP1 SLOAD PUSH1 0x1 DUP2 PUSH1 0x1 AND ISZERO PUSH2 0x100 MUL SUB AND PUSH1 0x2 SWAP1 DIV SWAP1 PUSH1 0x0 MSTORE PUSH1 0x20 PUSH1 0x0 KECCAK256 SWAP1 PUSH1 0x1F ADD PUSH1 0x20 SWAP1 DIV DUP2 ADD SWAP3 DUP3 PUSH1 0x1F LT PUSH2 0x8CE JUMPI DUP1 MLOAD PUSH1 0xFF NOT AND DUP4 DUP1 ADD OR DUP6 SSTORE PUSH2 0x8FC JUMP JUMPDEST DUP3 DUP1 ADD PUSH1 0x1 ADD DUP6 SSTORE DUP3 ISZERO PUSH2 0x8FC JUMPI SWAP2 DUP3 ADD JUMPDEST DUP3 DUP2 GT ISZERO PUSH2 0x8FB JUMPI DUP3 MLOAD DUP3 SSTORE SWAP2 PUSH1 0x20 ADD SWAP2 SWAP1 PUSH1 0x1 ADD SWAP1 PUSH2 0x8E0 JUMP JUMPDEST JUMPDEST POP SWAP1 POP PUSH2 0x909 SWAP2 SWAP1 PUSH2 0xA5C JUMP JUMPDEST POP SWAP1 JUMP JUMPDEST DUP3 DUP1 SLOAD PUSH1 0x1 DUP2 PUSH1 0x1 AND ISZERO PUSH2 0x100 MUL SUB AND PUSH1 0x2 SWAP1 DIV SWAP1 PUSH1 0x0 MSTORE PUSH1 0x20 PUSH1 0x0 KECCAK256 SWAP1 PUSH1 0x1F ADD PUSH1 0x20 SWAP1 DIV DUP2 ADD SWAP3 DUP3 PUSH1 0x1F LT PUSH2 0x946 JUMPI DUP1 SLOAD DUP6 SSTORE PUSH2 0x983 JUMP JUMPDEST DUP3 DUP1 ADD PUSH1 0x1 ADD DUP6 SSTORE DUP3 ISZERO PUSH2 0x983 JUMPI PUSH1 0x0 MSTORE PUSH1 0x20 PUSH1 0x0 KECCAK256 SWAP2 PUSH1 0x1F ADD PUSH1 0x20 SWAP1 DIV DUP3 ADD JUMPDEST DUP3 DUP2 GT ISZERO PUSH2 0x982 JUMPI DUP3 SLOAD DUP3 SSTORE SWAP2 PUSH1 0x1 ADD SWAP2 SWAP1 PUSH1 0x1 ADD SWAP1 PUSH2 0x967 JUMP JUMPDEST JUMPDEST POP SWAP1 POP PUSH2 0x990 SWAP2 SWAP1 PUSH2 0xA5C JUMP JUMPDEST POP SWAP1 JUMP JUMPDEST POP DUP1 SLOAD PUSH1 0x1 DUP2 PUSH1 0x1 AND ISZERO PUSH2 0x100 MUL SUB AND PUSH1 0x2 SWAP1 DIV PUSH1 0x0 DUP3 SSTORE DUP1 PUSH1 0x1F LT PUSH2 0x9BA JUMPI POP PUSH2 0x9D9 JUMP JUMPDEST PUSH1 0x1F ADD PUSH1 0x20 SWAP1 DIV SWAP1 PUSH1 0x0 MSTORE PUSH1 0x20 PUSH1 0x0 KECCAK256 SWAP1 DUP2 ADD SWAP1 PUSH2 0x9D8 SWAP2 SWAP1 PUSH2 0xA5C JUMP JUMPDEST JUMPDEST POP JUMP JUMPDEST DUP3 DUP1 SLOAD PUSH1 0x1 DUP2 PUSH1 0x1 AND ISZERO PUSH2 0x100 MUL SUB AND PUSH1 0x2 SWAP1 DIV SWAP1 PUSH1 0x0 MSTORE PUSH1 0x20 PUSH1 0x0 KECCAK256 SWAP1 PUSH1 0x1F ADD PUSH1 0x20 SWAP1 DIV DUP2 ADD SWAP3 DUP3 PUSH1 0x1F LT PUSH2 0xA1D JUMPI DUP1 MLOAD PUSH1 0xFF NOT AND DUP4 DUP1 ADD OR DUP6 SSTORE PUSH2 0xA4B JUMP JUMPDEST DUP3 DUP1 ADD PUSH1 0x1 ADD DUP6 SSTORE DUP3 ISZERO PUSH2 0xA4B JUMPI SWAP2 DUP3 ADD JUMPDEST DUP3 DUP2 GT ISZERO PUSH2 0xA4A JUMPI DUP3 MLOAD DUP3 SSTORE SWAP2 PUSH1 0x20 ADD SWAP2 SWAP1 PUSH1 0x1 ADD SWAP1 PUSH2 0xA2F JUMP JUMPDEST JUMPDEST POP SWAP1 POP PUSH2 0xA58 SWAP2 SWAP1 PUSH2 0xA5C JUMP JUMPDEST POP SWAP1 JUMP JUMPDEST PUSH2 0xA7E SWAP2 SWAP1 JUMPDEST DUP1 DUP3 GT ISZERO PUSH2 0xA7A JUMPI PUSH1 0x0 DUP2 PUSH1 0x0 SWAP1 SSTORE POP PUSH1 0x1 ADD PUSH2 0xA62 JUMP JUMPDEST POP SWAP1 JUMP JUMPDEST SWAP1 JUMP STOP LOG1 PUSH6 0x627A7A723058 KECCAK256 MSTORE 0x4c 0x48 SWAP14 0xeb SWAP10 SWAP14 0xef CALLDATACOPY 0xd4 0xb2 0xa5 PUSH9 0x38CCE00ECA7EAD3174 0xcb 0xd1 0x4d 0x46 LOG4 SWAP5 SLOAD PUSH17 0x8C42002900000000000000000000000000 "
				},
				"gasEstimates": {
					"creation": {
						"codeDepositCost": "546600",
						"executionCost": "579",
						"totalCost": "547179"
					},
					"external": {
						"addDisease(uint256,string)": "infinite",
						"addMedication(uint256,string)": "infinite",
						"addPeople(string,uint256,uint256)": "infinite",
						"changeAge(uint256,uint256)": "20308",
						"changePublicPass(uint256,uint256)": "infinite",
						"peopleData(uint256)": "infinite",
						"purchasedMedication(uint256)": "infinite"
					}
				},
				"methodIdentifiers": {
					"addDisease(uint256,string)": "f82d4db3",
					"addMedication(uint256,string)": "f3abea83",
					"addPeople(string,uint256,uint256)": "0b6dde0c",
					"changeAge(uint256,uint256)": "20de6831",
					"changePublicPass(uint256,uint256)": "79ecb90b",
					"peopleData(uint256)": "73ea23d9",
					"purchasedMedication(uint256)": "d0db7899"
				}
			},
			"userdoc": {
				"methods": {}
			}
		}
	}
}